:1000000072C01AC28BC08AC089C088C087C086C02F
:1000100085C084C083C082C081C080C07FC004030B
:100020000904100344006F00760079006400610049
:100030007300160350006100730073002000490034
:100040006E007000750074001201100100000008BD
:10005000424231E1000101020001090222000101D6
:1000600000801909040000010301010009210101B8
:100070000001223F000705810308000A736C6170CC
:1000800074617A6F646973310A00736C61707461B2
:100090007A6F646973320A00736C617074617A6F8D
:1000A000646973330A0005010906A1017501950809
:1000B000050719E029E7150025018102950175085A
:1000C000810395057501050819012905910295011E
:1000D0007503910395067508150025650507190038
:1000E00029658100C00011241FBECFE5D2E0DEBF2C
:1000F000CDBF10E0A0E6B0E0ECE5FAE002C005906C
:100100000D92A436B107D9F710E0A4E6B0E001C023
:100110001D92A73CB107E1F7A2D39EC471CF85B76A
:10012000826085BF8BB780648BBF8BE480939D001A
:100130008AE580939C0008951F93DC01162F80911F
:100140009C0084FF07C080919D0098E889278093D8
:100150009D0003C08AE580939C00912FEEE9F0E0BA
:100160008D91819391501916DCF38EE990E0612F07
:100170004CD11C5F10939C001F9108951F93CF9347
:10018000DF936091AD00635067FDC2C08091AA000B
:10019000CCE0D0E0C81BD109CF54DF4F8091A9003B
:1001A0008D3209F0A3C0683009F0B0C083EC8093B1
:1001B00091008AE5809360001092650088818076C6
:1001C00039F0CE010FD3282F8F3F09F47EC084C0B1
:1001D0009A8110929A008981882321F410929B00C1
:1001E00022E06CC0853019F49093AE0066C0863072
:1001F00009F04FC08B81813041F488E490E0909306
:10020000AC008093AB0022E140C0823041F48AE52B
:1002100090E09093AC008093AB0022E236C0833034
:10022000F9F48A81882341F48EE190E09093AC0048
:100230008093AB0024E029C0813041F482E290E059
:100240009093AC008093AB0020E11FC08230E1F4BA
:1002500082E390E09093AC008093AB0026E115C060
:10026000813241F48CE690E09093AC008093AB0037
:1002700029E00BC0823241F486EA90E09093AC0012
:100280008093AB002FE301C020E080E48093650001
:1002900023C0883021F421E080EB90E011C0893048
:1002A00019F49093B00009C08A3011F421E006C01F
:1002B0008B3019F48BE480939D0020E08AE990E074
:1002C0009093AC008093AB0007C0888187FD2E819E
:1002D00080E88093650006C08F81882319F48E81A1
:1002E000821708F0822F8093610010C08091650012
:1002F00087FF0CC0CE01A9D28F3F21F48EE18093FD
:10030000600004C0882311F0109261001092AD00CB
:100310008091600084FF49C0809161008F3F09F4A3
:1003200044C0182F893008F018E0811B80936100C9
:100330008091910098E8892780939100112341F1E1
:100340002091AB003091AC008091650086FF0DC01C
:10035000A2E9B0E080E090E0F901E80FF91FE49134
:10036000ED9301961817C1F708C0912FD901E2E962
:10037000F0E08D9181939150E1F71150812F90E041
:100380001F5F0196820F931F9093AC008093AB0088
:1003900082E990E0612F39D0612F6C5F6C3019F0E9
:1003A0008FEF809361006093600094E186B3867064
:1003B00031F49150D9F71092AE001092A80010E0DD
:1003C000992309F411E080916400811729F0112329
:1003D00009F4E7D210936400DF91CF911F91089543
:1003E000A82FB92F80E090E041E050EA609530E01E
:1003F00009C02D9182279795879510F0842795271E
:10040000305EC8F36F5FA8F30895EADF8D939D9384
:100410000895A6E088279927AA9569F00197E1F346
:10042000B199FCCFB19BFECF81E09927A6B301968D
:1004300011F0A670D9F70895CF93CFB7CF93C39596
:10044000B19BE9F7B19B0BC0B19B09C0B19B07C041
:10045000B19B05C0B19B03C0B19B01C0D5C00F9239
:10046000DF93C091AA00DD27CF54DF4F012EB19B4F
:1004700003C0DF910F90E6CF2F930F931F934F93FD
:100480002FEF4F6F06B301FB20F95F933F9350E0CE
:100490003BE065C016B30126502951FDC89556B3FF
:1004A000012701FB25F92F7306B3B1F05027102760
:1004B00011FB26F906B22230F0F000C016B3012776
:1004C00001FB27F90126502906B22430E8F54F77C1
:1004D000206816B30000F6CF50274F7D206206B289
:1004E000102F000000C006B300265029102711FB72
:1004F00026F906B2E2CF4F7B06B3206400C0DACF04
:1005000001265029167006B269F14E7F2160012F35
:1005100016B328C0002650294D7F06B22260102F46
:1005200029C0012650294B7F06B22460012F2DC01F
:1005300016B301265029477F2860000006B22EC05E
:100540004F7E06B3206130C0422706B34993002690
:100550005029102706B24FEF11FB20F9297F16B35F
:1005600079F2167059F10126502906B2012701FBD4
:1005700021F9237F06B371F2002650293150D0F0C3
:1005800006B2102711FB22F9277E16B351F201267D
:100590005029012701FB06B223F92F7C49F2000004
:1005A00006B3102711FB24F90026502906B22F7933
:1005B00039F270CF10E41ABF002719C03B503195B3
:1005C000C31BD04010E41ABF0881033C09F10B346F
:1005D000F9F02091A8001981110F1213EDCF4A8173
:1005E000441F093651F10D3211F0013E29F70093F5
:1005F000AF003F915F914F911F910F912F91DF912C
:100600000F90CAB7C6FD1BCFCF91CFBFCF91189522
:100610002091AF00222369F31091AD00112379F5E9
:1006200034307AF13093AD002093A9001091AA00E4
:100630003BE0311B3093AA0024C00091AD00013093
:10064000F4F40AE54F7049F43091600034FD1AC0AB
:1006500000936000C1E9D0E019C030919C0034FDE6
:1006600011C000939C00CDE9D0E010C0052710E038
:1006700000C021C0052710E0C89508BB14C03AE5AA
:1006800001C032ED032EC0E0D0E032E017B31660B7
:10069000C19A08B317BB56E020E84FEF20FF0527AB
:1006A00008BB279517951C3F28F700004552B0F767
:1006B00020FF0527279508BB17951C3FB8F6299101
:1006C0003A9561F7097F1091AE00110F08BBC25037
:1006D000D04011F01093A80010E41ABF026017B3C5
:1006E000197F402F497F54E05A95F1F708BB17BB9B
:1006F00048BB7FCF80916600882359F080916700C6
:10070000803238F4E82FF0E0EF58FF4FE081EE231D
:1007100031F41092680010926A0080E00895909180
:100720006300992309F451C08F5F809367008E2F77
:1007300080538A3048F410926800E03311F487E265
:100740003FC08E2F83513CC08E2F81568A3138F4A2
:1007500080916200827080936800ED550EC08E2FEC
:1007600081548A3168F48091620081FD02C082E088
:1007700001C080E080936800ED53E0936A0029C0D7
:100780001092680010926A00ED32A9F0EE3248F43F
:10079000E03299F0E132E8F4E93089F0EA30C9F466
:1007A00012C0EE3219F0EF35A1F402C087E308C0A1
:1007B00082E0809368008DE203C08CE201C08BE28E
:1007C00080936A0006C088E2FBCF10926800109206
:1007D0006A0010926300992319F481E0809363000A
:1007E00081E00895FC0180818076803261F581810D
:1007F0008230E1F0833018F4813029F505C089306A
:1008000079F08A3001F51AC088E690E09093AC0048
:100810008093AB001092680010926A0088E00895FF
:1008200086819781019779F48FEF089580E790E0B2
:100830009093AC008093AB0081E008958381809316
:10084000700080E0089580E00895FC01E0818091CF
:100850006200E81711F0E093620081E00895DF92F2
:10086000EF92FF920F931F93CF93DF93E8E6F0E0B0
:10087000119280E0E037F807D9F72EE088E190E0A8
:100880000FB6F894A89581BD0FBE21BD48DCB99A7A
:1008900020E04AE350E2A895CA010197F1F72F5FE3
:1008A0002A3FC9F7B99883B7826083BFBC98BB98C9
:1008B000B898C49AC39AC09A7894EE24FF2400E0B2
:1008C00010E0C0E0D0E0DD24D394A89557DCB49BC1
:1008D00003C0EE24FF2408C08FEFE8168FEFF80660
:1008E00019F00894E11CF11CB39B03C000E010E078
:1008F00006C08FEF0F3F180711F00F5F1F4FB09B1F
:1009000003C0C0E0D0E005C08FEFCF3FD80709F0AB
:10091000219680916600813071F18CEDE81685E0BA
:10092000F80659F481E790E06CE770E04EE050E0A3
:100930008AD010926700D092660085E00C3D1807BF
:1009400059F481E790E06AE870E04EE050E07BD037
:1009500010926700D092660085E0CC3DD80759F42C
:1009600081E790E068E970E04EE050E06CD01092D2
:100970006700D092660080919C0084FFA6CF809192
:100980006600813009F0A1CF809162008F3F09F4A9
:100990009CCFB0DE8093660088E690E068E0CCDB18
:1009A00094CFCF92DF92EF92FF920F931F93CF934A
:1009B000DF93CFE0D7E2CC24DD24DD2011F010E876
:1009C00001C010E040E050E000E4EE24FF24445376
:1009D000594014F4100F01C0101B11BF1ADD9C0107
:1009E000AC0189E02533380714F0C90104C0882719
:1009F0009927821B930B845399408C179D076CF4A5
:100A000089E02533380714F0E90104C0CC27DD273D
:100A1000C21BD30BC453D940C12E06950894E11CC8
:100A2000F11C87E0E816F10491F6D39482E0D81621
:100A300021F6C1BEDF91CF911F910F91FF90EF90F2
:100A4000DF90CF900895FB01DC0102C005900D926C
:0C0A500041505040D8F70895F894FFCFB3
:040A5C005AFFFF013D
:00000001FF
